:080A4B00021E0000021C001E47
:04045600AB07AA0640
:10045A00E4F512751309F514C3EA64809480500A0E
:10046A00751401C3E49BFBE49AFAEB4A700AAF13D2
:10047A00151374082FF87630D3EB9400EA6480944D
:03048A0080402D82
:10048D007C007D0AAF03AE021202CB8D15E515245B
:10049D0030FFAE13151374082EF8A6077C007D0AE5
:0B04AD00AF03AE021202CBAA06AB07A1
:1004B80080C8E514B4010AAF13151374082FF87631
:1004C8002DE51304F512E512C3940A500E7408259D
:0B04D80012F8E6FF120A64051280EB28
:0104E30022F6
:03000B000207C920
:1007C900C0E0C0D075D000C000C28DC28C758ABF90
:1007D900758CFFD28CD3E51F951DE51C6480F8E567
:1007E9001E6480985004D2908002C290051FE51FB4
:1007F9007002051EC39490E51E64809481400675BD
:0C0809001E00751F00D000D0D0D0E032DF
:1009C70053B3FE43B4015389F0538EF7438901753E
:0A09D7008AEA758CCBD2A9D28C22DB
:1008F600C3EE648094805003E4FEFFD3EF94B4EE1D
:100906006480948040047E007FB4AD07AC06EC1290
:1009160002117B837A2D7958783E120106E4FBFAA0
:0E092600F9784112001512024A8E1C8F1D2214
:100A1300AD07AC06ECFF3395E08FD2EDF5DAE4F5E4
:060A2300D3F5DBD2DE2258
:100A2900AD07AC06E4F5D2F5DAECFF3395E08FD3E8
:060A3900EDF5DBD2DE2228
:0C0A3F00E4F5D2F5DAF5D3F5DBD2DE22C7
:1009FB0043DE0143DE0253DF3F43DF0353DFFB756F
:080A0B00D10775D9CFD2DF221B
:1004E400E4F5B1F5B1F5B3F5B4F5ACF5AD7F807EC7
:1004F40025FDFC1209347F007EC27D017C001206BA
:1005040071D2AF439B021209C77F5A7E001208F6CC
:030514001209FBCE
:10051700E4F516F517F516F517D3E51794D0E51694
:1005270064809487501BAF17AE16120A137F647E40
:100537000012096D74642517F517E43516F5168052
:10054700D87516007517B4C3E5166480948040C04B
:10055700AF17AE161208F67F147E0012096DE51765
:0805670015177002151680DF64
:01056F002269
:1009340053B1BF53B2BF53B17F53B27F7598504385
:100944008920438780438E1053C4DFAB07AA06A9CE
:1009540005A8047F407E427D0F7C0012033DEF0416
:09096400F404F58DD28ED2992223
:1005FC008F248E238D228C2153B1BF53B2BF53B1A4
:10060C007F53B27F75985043878053C4F843C420FE
:10061C00AB24AA23A922A8217F407E427D0F7C0017
:10062C0012033DC374FF9FFF74FF9EFEE49DFDE427
:10063C009CFC78081203EE8FC6AB24AA23A922A82F
:10064C00217F407E427D0F7C0012033DC374FF9FCF
:10065C00FF74FF9EFEE49DFDE49CFCEFE48FC5431C
:05066C00C408D2992230
:070003003098FDAF99C2988F
:01000A0022D3
:080A5400C2998F993099FD222F
:100671008F1B8E1A8D198C1853B1FB53B2FB53B3D8
:10068100BF53B4BF75F85075C40853C4DFAB1BAA80
:100691001AA919A8187F407E427D0F7C0012033DE4
:1006A100C374FF9FFF74FF9EFEE49DFDE49CFC78F4
:1006B100081203EE8FC6AB1BAA1AA919A8187F400E
:1006C1007E427D0F7C0012033DC374FF9FFF74FFC8
:1006D1009EFEE49DFDE49CFCEFE48FC543C408222B
:070A5C0030F8FDAF9AC2F86B
:010A63002270
:080A6400C2F98F9A30F9FD225E
:1009E10075C7AA75C755A2AF9200C2AF75C7AA75E0
:0A09F100C755439F80A20092AF2279
:10096D00E4FDFCC3ED9FEE6480F8EC648098501CB0
:10097D00E4FBFAC3EB94D9EA6480948250070BEB45
:0C098D0070010A80EE0DED70010C80D7A7
:01099900223B
:10099A00E4FDFCC3ED9FEE6480F8EC648098501C83
:1009AA00E4FBFAC3EB9448EA6480948050070BEBAB
:0C09BA0070010A80EE0DED70010C80D77A
:0109C600220E
:100815008F288E278D268C25538EF7438901D28C00
:10082500E4FFFEFDFCAB28AA27A926A825C31203D1
:10083500DD6025758A7E758CFF308DFDC28D74FF58
:100845002528F528E52734FFF527E52634FFF52685
:0B085500E52534FFF52580C8C28C2289
:100860008F2C8E2B8D2A8C29538EF7438901D28CA5
:10087000E4FFFEFDFCAB2CAA2BA92AA829C3120376
:10088000DD6025758ACA758CFA308DFDC28D74FFC6
:10089000252CF52CE52B34FFF52BE52A34FFF52A22
:0B08A000E52934FFF52980C8C28C2236
:1008AB008F308E2F8D2E8C2D538EEF438910D28E41
:1008BB00E4FFFEFDFCAB30AA2FA92EA82DC312031B
:1008CB00DD6025758BEA758DCB308FFDC28F74FF84
:1008DB002530F530E52F34FFF52FE52E34FFF52EBF
:0B08EB00E52D34FFF52D80C8C28E22E1
:1006E1008F348E338D328C3153C9BF53C9DF43C927
:1006F10010D2CAE4FFFEFDFCAB34AA33A932A83103
:10070100C31203DD602575CC3075CDF830CFFDC245
:10071100CF74FF2534F534E53334FFF533E5323456
:0E072100FFF532E53134FFF53180C8C2CA223F
:10072F008F388E378D368C3575C40743C408E4FF78
:10073F00FEFDFCAB38AA37A936A835C31203DD601E
:10074F002875C52C75C6CFE5C430E4FB53C4EF74D0
:10075F00FF2538F538E53734FFF537E53634FFF543
:0D076F0036E53534FFF53580C553C4F7225B
:10077C008F3C8E3B8D3A8C3975C40743C408E4FF1B
:10078C00FEFDFCAB3CAA3BA93AA839C31203DD60C1
:10079C002875C5D875C6FFE5C430E4FB53C4EF74A7
:1007AC00FF253CF53CE53B34FFF53BE53A34FFF5E2
:0D07BC003AE53934FFF53980C553C4F72202
:10000E000202B6E86480F8E933E83360110460F068
:10001E00ED33EC337009E8FCE9FDEAFEEBFF220458
:10002E0060DED3EB9FEA9EE99DE8C2E78CF0C2F753
:10003E0095F0400CE8CCF8E9CDF9EACEFAEBCFFB1F
:10004E0012028185D0F05804700320D5B3E80470F5
:10005E00075002B2D50202C092D5EC0460F7E4CC90
:10006E00C0E0C398F8603B94186008400DD0E0FBE8
:10007E00020298E4FBFAC9FC8028E830E406E4C9E1
:10008E00FBE4CAFCE830E305E4C9CACBFCE854073C
:10009E006010F8C3E913F9EA13FAEB13FBEC13FC47
:1000AE00D8F130F52FC3E49CFCEF9BFFEE9AFEEDEA
:1000BE0099FDD0E0FBEF4E4D4C701222DB03020295
:1000CE00BDEC2CFCEF33FFEE33FEED33FDED30E7F0
:1000DE00EB020298EF2BFFEE3AFEED39FDD0E0FB7E
:1000EE0050130BBB00030202C0ED13FDEE13FEEF27
:0800FE0013FFEC13FC02029851
:10010600EC4D6011E8497017ED33EC3304600DE4F3
:10011600FCFFFEFD22E933E8330470F80202B61252
:10012600028158046009E4CC248150062850090253
:1001360002C02840030202BDC0E0EB4A7044B98009
:1001460006D0E0FB0202ACEF4E701CBD8008EBFF50
:10015600EAFEE9FD80EBE98DF0A4FEE5F00201EF91
:10016600E9CDF9EAFEEBFFEF89F0A4FCE5F0CE89D4
:10017600F0A42EFFE435F0CD89F0A42DFEE435F091
:100186008067EF4E7005BD80D780C3EF8BF0A4ACBF
:10019600F0EE8BF0A42CFCE435F0F8EF8AF0A42CFA
:1001A600E5F038FCE433CB8DF0A42CFCE5F03BF80D
:1001B600EE8AF0A42CFCE5F038F8E433CF89F0A4FD
:1001C6002CFCE5F038CF3400CE89F0A42FFFE5F003
:1001D6003EFEE433C98DF0A42EFEE5F039CD8AF05B
:1001E600A42FFFE5F03EFEE43DFD33D0E0FB5007D3
:1001F6000BBB000F0202C0EC2CFCEF33FFEE33FE0C
:06020600ED33FD02029839
:10020C0075F020800E75F010800575F0087D007E6D
:10021C00007F003392D530D5031203CFEC3340105E
:10022C00EF33FFEE33FEED33FDEC33FCD5F0ED2276
:0E023C00E5F0247EA2D513CC92E7CDCEFF22B2
:10024A00EDD2E7CD33EC3392D524814006E4FFFEAC
:10025A00FDFC22FCE4CFCECDCC24E0501174FF800B
:10026A00EDC3CC13CCCD13CDCE13CECF13CF0470A8
:07027A00F030D5DE0203CFD6
:10028100E9D2E7C933E833F892D5EDD2E7CD33ECC3
:0702910033FC5002B2D5223C
:10029800EC30E7100FBF000C0EBE00080DBD0004C7
:1002A8000BEB6014A2D5EB13FCED92E7FD2274FF73
:1002B800FCFDFEFF22E480F8A2D574FF13FC7D80CC
:0302C800E480EFE0
:0300000002057086
:0C057000787FE4F6D8FD75813C0205B7E9
:1002CB00C2D5EC30E709B2D5E4C39DFDE49CFCEE4E
:1002DB0030E715B2D5E4C39FFFE49EFE120401C3C1
:1002EB00E49DFDE49CFC800312040130D507C3E4BC
:0602FB009FFFE49EFE22BD
:1003010075F008758200EF2FFFEE33FECD33CDCCB3
:1003110033CCC58233C5829BED9AEC99E582984036
:100321000CF582EE9BFEED9AFDEC99FC0FD5F0D613
:10033100E4CEFBE4CDFAE4CCF9A88222B800C1B93D
:100341000059BA002DEC8BF084CFCECDFCE5F0CB7B
:10035100F97818EF2FFFEE33FEED33FDEC33FCEBB4
:1003610033FB10D703994004EB99FB0FD8E5E4F96F
:10037100FA227818EF2FFFEE33FEED33FDEC33FC5C
:10038100C933C910D7059BE99A4007EC9BFCE99A50
:10039100F90FD8E0E4C9FAE4CCFB2275F010EF2F95
:1003A100FFEE33FEED33FDCC33CCC833C810D70795
:1003B1009BEC9AE899400AED9BFDEC9AFCE899F8D0
:0E03C1000FD5F0DAE4CDFBE4CCFAE4C8F92263
:0E03CF00C3E49FFFE49EFEE49DFDE49CFC223F
:1003DD00EB9FF5F0EA9E42F0E99D42F0E89C45F076
:0103ED0022ED
:1003EE00E8600FECC313FCED13FDEE13FEEF13FFED
:0303FE00D8F12211
:10057C000204E4E493A3F8E493A34003F68001F2AD
:10058C0008DFF48029E493A3F85407240CC8C33380
:10059C00C4540F4420C8834004F456800146F6DF4F
:1005AC00E4800B0102040810204080900A4BE47E8A
:1005BC00019360BCA3FF543F30E509541FFEE49344
:1005CC00A360010ECF54C025E060A840B8E493A30B
:1005DC00FAE493A3F8E493A3C8C582C8CAC583CA36
:1005EC00F0A3C8C582C8CAC583CADFE9DEE780BEEE
:010A530000A2
:10040100BC000BBE0029EF8DF084FFADF022E4CCDF
:10041100F875F008EF2FFFEE33FEEC33FCEE9DECA8
:10042100984005FCEE9DFE0FD5F0E9E4CEFD22EDEE
:10043100F8F5F0EE8420D21CFEADF075F008EF2F38
:10044100FFED33FD4007985006D5F0F222C398FD29
:050451000FD5F0EA22C6
:00000001FF
