:1011670041006F004100000142003B0000420005C2
:10117700001E420007000042000100004200030079
:06118700004200700000B0
:03003B00020B793C
:100B7900C0E0C0F0C083C082C0D075D000C000C042
:100B890001C002C003C004C005C006C007E5EC30BF
:100B9900E44C75EC0090006FE0701F20941C43E951
:100BA9004053EAEF43EB1004F0900000E4F0E0FF5B
:100BB9001212057F0A121205802490006FE0640169
:100BC900701C30941943E94043EA1053EBEFF0905D
:100BD900000004F0E0FF1212057F0A121205D00787
:100BE900D006D005D004D003D002D001D000D0D097
:090BF900D082D083D0F0D0E032AC
:04085C00AB07AA0636
:10086000E490009FF0A37409F0E4A3F0C3EA64806D
:100870009480500A7401F0C3E49BFBE49AFAEB4ABB
:1008800070149000A0E0FF14F074952FF582E4340A
:1008900000F5837430F0D3EB9400EA6480948040D8
:0108A000381F
:1008A1007C007D0AAF03AE021203389000A2EDF086
:1008B100E02430FF9000A0E0FE14F074952EF58244
:1008C100E43400F583EFF07C007D0AAF03AE021241
:0608D1000338AA06AB0784
:1008D70080BD9000A1E0B401149000A0E0FF14F0E7
:1008E70074952FF582E43400F583742DF09000A001
:1008F700E00490009FF090009FE0C3940A5017E037
:100907002495F582E43400F583E0FF121215900078
:060917009FE004F080E007
:01091D0022B7
:03000B000209CB1C
:1009CB00C0E0C0F0C083C082C0D075D000C000C0F2
:1009DB0001C002C003C004C005C006C007C28DC25F
:1009EB008C758ABF758CFFD28C900005E0FEA3E05E
:1009FB00FFD390003CE09FEE6480F890003BE064F6
:100A0B0080985004D2908002C29090003CE004F099
:100A1B00700690003BE004F0C390003CE094909093
:100A2B00003BE0648094814011E4F0A3F09000005F
:100A3B00E0FF1212057F0A121205D007D006D0056F
:100A4B00D004D003D002D001D000D0D0D082D0833C
:050A5B00D0F0D0E032F4
:1011AA0053B3FE43B4015389F0538EF74389017553
:0A11BA008AEA758CCBD2A9D28C22F0
:100D740090008BEEF0A3EFF0E0245AF090008BE0AB
:100D84003400F0C3E0648094805004E4F0A3F0D312
:100D940090008CE094B490008BE0648094804006D2
:100DA400E4F0A374B4F090008BE0FCA3E0FDEC123B
:100DB40002417B837A2D7958783E120136E4FBFA9E
:100DC400F9784112004512027A900005EEF0A3EF83
:100DD400F090008CE024A6FF90008BE034FFFE220C
:04091E00AB07AA0673
:10092200E490008BF0A3F0D3EB940AEA6480948005
:1009320040047A007B0AC3EB94F6EA6480947F5009
:10094200047AFF7BF6EB4A7008F5D2F5DAF5D3F5B7
:10095200DBD3EB9400EA64809480402C7C007DB36E
:10096200AF03AE02120326EF24C8FFE43E90008BD1
:10097200F0A3EFF090008BE0FF3395E08FD2E0A37D
:10098200E0F5DAE4F5D3F5DBC3EA64809480503213
:10099200C3E49BFBE49AFA7C007DB3AF03FE12032F
:1009A20026EF24C8FFE43E90008BF0A3EFF0E4F5BD
:1009B200D2F5DA90008BE0FF3395E08FD3E0A3E02D
:0809C200F5DBD2DEAE02AF034B
:0109CA00220A
:1011DE0043DE0143DE0253DF3F43DF0353DFFB7584
:0811EE00D10775D9CFD2DF2231
:100A6000E4FFFE900001E0FCA3E02409F58274009D
:100A70003CF583E0606A900001E0A3E02409F58280
:100A800074003CF583E0FD743D2FF58274003EF563
:100A900083EDF0900001E0FCA3E02409F5827400EE
:100AA0003CF583E4F00FEF70010E900002E004F0DB
:100AB0007006900001E004F0C3900002E0943290D0
:100AC0000001E0648094804004E4F0A3F0743C2FC3
:100AD000F58274003EF583E0640A708780028083AB
:0C0AE000743D2FF58274003EF583E4F0B5
:010AEC0022E7
:0300230002108147
:10108100C0E0C083C082C0D075D000C0063098389F
:10109100C298900007E0FEA3E02409F58274003EA7
:1010A100F583E599F0900008E004F07006900007E0
:1010B100E004F0C3900008E09432900007E06480FF
:1010C10094804004E4F0A3F0D006D0D0D082D08345
:0310D100D0E0323A
:0B0CFB0090008BEBF0A3EAF0A3E9F0FF
:100D060090008BE0F9A3E0FAA3E0A3C9F0A3EAF010
:100D1600A3E9F090008BE0FBA3E0FAA3E0F912024E
:100D2600FB603B90008BE0A3E0A3E01202FB642093
:100D3600602090008BE0A3E0A3E01202FBFF90008E
:100D46008EE0FBA3E475F001120384A9F0FAEF121A
:100D5600031490008CE475F00112036E80B59000C8
:0D0D66008EE0FBA3E0FAA3E0F9E412031411
:010D7300225D
:10054900E4F5B1F5B1F5B3F5B4F5ACF5ADFF7EC29F
:100559007D01FC1210D47F007EC27D017C00120C4B
:100569008143B31053B4EFA2AF920075C7AA75C700
:100579005575910143B11075C7AA75C755E4F59131
:10058900A20092AF43E94043EA1053EBEF90006FAA
:10059900F043E901D2AF439B02D2AC1211AAFFFE8C
:0605A900120D741211DEB8
:1005AF00120A60900072EEF0A3EFF0D3E094009087
:0905BF000072E06480948040E7C2
:1005C800E4900074F0A3F0A3F0A3F07B017A007923
:1005D8003D12000E900072EEF0A3EFF07B017A005E
:1005E800793D7D2C12118E900088EBF0A3EAF0A3E0
:1005F800E9F07B007A007900C003C002C0019000D6
:1006080088E0FBA3E0FAA3E0F9D082D083D0E06BC6
:100618007008E965827003EA6583608B7E007F0855
:100628007D007B017A0079781204A67E007F087D20
:10063800007B017A0079801204A67B017A00797820
:10064800C003C00290008EEBF0A37400F0A3743DC9
:10065800F0900088E0A3E0FAA3E0C3943DFEEA949A
:1006680000900091F0A3CEF0D002D003120DE47BED
:10067800017A007980C003C002C001900088E0FBC5
:10068800A3E0FAA3E02401F9E43AFA90008EEBF033
:10069800A3EAF0A3E9F0900088E0A3E0FAA3E0C39E
:1006A800943DFFEA9400FEC3900073E09FFF900022
:1006B80072E09ECF24FFCF34FF900091F0A3EFF0BB
:1006C800D001D002D003120DE47B017A00797812B0
:1006D8000CFB7B017A007980120CFB7B017A007994
:1006E80078120781900074EEF0A3EFF07B017A0096
:1006F8007980120781900076EEF0A3EFF0C39000A6
:1007080075E094F6900074E06480947F4021D3A350
:10071800E0940A900074E0648094805012E0FEA394
:10072800E0FF12091E900074EEF0A3EFF08009902C
:100738000074E4F0A374C8F0C3900077E094A69026
:100748000076E06480947F4022D3A3E0945A90001E
:1007580076E0648094805013E0FEA3E0FF120D74ED
:10076800900076EEF0A3EFF00205AF9000767401EA
:05077800F0A37490F0F5
:04077D000205AF22A0
:1010D40053B1BF53B2BF53B17F53B27F75985043DE
:1010E4008920438780438E1053C4DFAB07AA06A927
:1010F40005A8047F407E427D0F7C001203D6EF04D6
:09110400F404F58DD28ED299227B
:100C02009000A312049A53B1BF53B2BF53B17F53A2
:100C1200B27F75985043878053C4F843C420900034
:100C2200A3E0F8A3E0F9A3E0FAA3E0FB7F407E4251
:100C32007D0F7C001203D6C374FF9FFF74FF9EFEDC
:100C4200E49DFDE49CFC78081204878FC69000A303
:100C5200E0F8A3E0F9A3E0FAA3E0FB7F407E427D47
:100C62000F7C001203D6C374FF9FFF74FF9EFEE445
:0F0C72009DFDE49CFCEFE48FC543C408D299229A
:070003003098FDAF99C2988F
:01000A0022D3
:08120500C2998F993099FD2276
:100C810090008B12049A53B1FB53B2FB53B3BF5381
:100C9100B4BF75F85075C40853C4DF90008BE0F8F9
:100CA100A3E0F9A3E0FAA3E0FB7F407E427D0F7C45
:100CB100001203D6C374FF9FFF74FF9EFEE49DFDE7
:100CC100E49CFC78081204878FC690008BE0F8A39F
:100CD100E0F9A3E0FAA3E0FB7F407E427D0F7C00B8
:100CE1001203D6C374FF9FFF74FF9EFEE49DFDE4D3
:0A0CF1009CFCEFE48FC543C4082209
:07120D0030F8FDAF9AC2F8B2
:0112140022B7
:08121500C2F98F9A30F9FD22A5
:1011C40075C7AA75C755A2AF9200C2AF75C7AA75F5
:0A11D400C755439F80A20092AF228E
:10110D00E4FDFCC3ED9FEE6480F8EC648098501C08
:10111D00E4FBFAC3EB94D9EA6480948250070BEB9D
:0C112D0070010A80EE0DED70010C80D7FF
:011139002293
:10113A00E4FDFCC3ED9FEE6480F8EC648098501CDB
:10114A00E4FBFAC3EB9448EA6480948050070BEB03
:0C115A0070010A80EE0DED70010C80D7D2
:011166002266
:100F6A009000A712049A538EF7438901D28CE4FFAA
:100F7A00FEFDFC9000A7E0F8A3E0F9A3E0FAA3E0E5
:100F8A00FBC31204766033758A7E758CFF308DFD43
:100F9A00C28D9000A7E0FCA3E0FDA3E0FEA3E0FF62
:100FAA0074FFEF24FFFFEE34FFFEED34FFFDEC3457
:0D0FBA00FFFC9000A712049A80B4C28C22A4
:100FC7009000AB12049A538EF7438901D28CE4FF49
:100FD700FEFDFC9000ABE0F8A3E0F9A3E0FAA3E084
:100FE700FBC31204766033758ACA758CFA308DFD9F
:100FF700C28D9000ABE0FCA3E0FDA3E0FEA3E0FF01
:1010070074FFEF24FFFFEE34FFFEED34FFFDEC34F9
:0D101700FFFC9000AB12049A80B4C28C2242
:101024009000AF12049A538EEF438910D28EE4FFDE
:10103400FEFDFC9000AFE0F8A3E0F9A3E0FAA3E022
:10104400FBC31204766033758BEA758DCB308FFD4C
:10105400C28F9000AFE0FCA3E0FDA3E0FEA3E0FF9D
:1010640074FFEF24FFFFEE34FFFEED34FFFDEC349C
:0D107400FFFC9000AF12049A80B4C28E22DF
:100E4C009000B312049A53C9BF53C9DF43C910D2DF
:100E5C00CAE4FFFEFDFC9000B3E0F8A3E0F9A3E0C8
:100E6C00FAA3E0FBC3120476603375CC3075CDF871
:100E7C0030CFFDC2CF9000B3E0FCA3E0FDA3E0FEB9
:100E8C00A3E0FF74FFEF24FFFFEE34FFFEED34FF11
:100E9C00FDEC34FFFC9000B312049A80B4C2CA2259
:100EAC009000B712049A75C40743C408E4FFFEFD12
:100EBC00FC9000B7E0F8A3E0F9A3E0FAA3E0FBC3D1
:100ECC00120476603675C52C75C6CFE5C430E4FBCC
:100EDC0053C4EF9000B7E0FCA3E0FDA3E0FEA3E059
:100EEC00FF74FFEF24FFFFEE34FFFEED34FFFDEC4B
:0F0EFC0034FFFC9000B712049A80B153C4F72260
:100F0B009000BB12049A75C40743C408E4FFFEFDAE
:100F1B00FC9000BBE0F8A3E0F9A3E0FAA3E0FBC36D
:100F2B00120476603675C5D875C6FFE5C430E4FB90
:100F3B0053C4EF9000BBE0FCA3E0FDA3E0FEA3E0F5
:100F4B00FF74FFEF24FFFFEE34FFFEED34FFFDECEB
:0F0F5B0034FFFC9000BB12049A80B153C4F722FC
:10003E000202E6E86480F8E933E83360110460F008
:10004E00ED33EC337009E8FCE9FDEAFEEBFF220428
:10005E0060DED3EB9FEA9EE99DE8C2E78CF0C2F723
:10006E0095F0400CE8CCF8E9CDF9EACEFAEBCFFBEF
:10007E001202B185D0F05804700320D5B3E8047095
:10008E00075002B2D50202F092D5EC0460F7E4CC30
:10009E00C0E0C398F8603B94186008400DD0E0FBB8
:1000AE000202C8E4FBFAC9FC8028E830E406E4C981
:1000BE00FBE4CAFCE830E305E4C9CACBFCE854070C
:1000CE006010F8C3E913F9EA13FAEB13FBEC13FC17
:1000DE00D8F130F52FC3E49CFCEF9BFFEE9AFEEDBA
:1000EE0099FDD0E0FBEF4E4D4C701222DB03020265
:1000FE00EDEC2CFCEF33FFEE33FEED33FDED30E790
:10010E00EB0202C8EF2BFFEE3AFEED39FDD0E0FB1D
:10011E0050130BBB00030202F0ED13FDEE13FEEFC6
:08012E0013FFEC13FC0202C8F0
:10013600EC4D6011E8497017ED33EC3304600DE4C3
:10014600FCFFFEFD22E933E8330470F80202E612F2
:1001560002B158046009E4CC2481500628500902F3
:1001660002F02840030202EDC0E0EB4A7044B98079
:1001760006D0E0FB0202DCEF4E701CBD8008EBFFF0
:10018600EAFEE9FD80EBE98DF0A4FEE5F002021F30
:10019600E9CDF9EAFEEBFFEF89F0A4FCE5F0CE89A4
:1001A600F0A42EFFE435F0CD89F0A42DFEE435F061
:1001B6008067EF4E7005BD80D780C3EF8BF0A4AC8F
:1001C600F0EE8BF0A42CFCE435F0F8EF8AF0A42CCA
:1001D600E5F038FCE433CB8DF0A42CFCE5F03BF8DD
:1001E600EE8AF0A42CFCE5F038F8E433CF89F0A4CD
:1001F6002CFCE5F038CF3400CE89F0A42FFFE5F0D3
:100206003EFEE433C98DF0A42EFEE5F039CD8AF02A
:10021600A42FFFE5F03EFEE43DFD33D0E0FB5007A2
:100226000BBB000F0202F0EC2CFCEF33FFEE33FEAB
:06023600ED33FD0202C8D9
:10023C0075F020800E75F010800575F0087D007E3D
:10024C00007F003392D530D503120468EC33401094
:10025C00EF33FFEE33FEED33FDEC33FCD5F0ED2246
:0E026C00E5F0247EA2D513CC92E7CDCEFF2282
:10027A00EDD2E7CD33EC3392D524814006E4FFFE7C
:10028A00FDFC22FCE4CFCECDCC24E0501174FF80DB
:10029A00EDC3CC13CCCD13CDCE13CECF13CF047078
:0702AA00F030D5DE0204680C
:1002B100E9D2E7C933E833F892D5EDD2E7CD33EC93
:0702C10033FC5002B2D5220C
:1002C800EC30E7100FBF000C0EBE00080DBD000497
:1002D8000BEB6014A2D5EB13FCED92E7FD2274FF43
:1002E800FCFDFEFF22E480F8A2D574FF13FC7D809C
:0302F800E480EFB0
:03000000020AED04
:0C0AED00787FE4F6D8FD758120020B3400
:1002FB00BB010689828A83E0225002E722BBFE0201
:09030B00E32289828A83E4932233
:10031400BB010689828A83F0225002F722BBFE01C8
:02032400F322C2
:10032600EF8DF0A4A8F0CF8CF0A428CE8DF0A42EEB
:02033600FE22A5
:10033800C2D5EC30E709B2D5E4C39DFDE49CFCEEE0
:1003480030E715B2D5E4C39FFFE49EFE1204F4C360
:10035800E49DFDE49CFC80031204F430D507C3E45B
:060368009FFFE49EFE224F
:10036E00C5F0F8A3E028F0C5F0F8E582158270021A
:06037E001583E038F022B7
:10038400A3F8E0C5F025F0F0E5821582700215832C
:06039400E0C838F0E82289
:10039A0075F008758200EF2FFFEE33FECD33CDCC1A
:1003AA0033CCC58233C5829BED9AEC99E58298409D
:1003BA000CF582EE9BFEED9AFDEC99FC0FD5F0D67A
:1003CA00E4CEFBE4CDFAE4CCF9A88222B800C1B9A4
:1003DA000059BA002DEC8BF084CFCECDFCE5F0CBE2
:1003EA00F97818EF2FFFEE33FEED33FDEC33FCEB1B
:1003FA0033FB10D703994004EB99FB0FD8E5E4F9D6
:10040A00FA227818EF2FFFEE33FEED33FDEC33FCC2
:10041A00C933C910D7059BE99A4007EC9BFCE99AB6
:10042A00F90FD8E0E4C9FAE4CCFB2275F010EF2FFB
:10043A00FFEE33FEED33FDCC33CCC833C810D707FB
:10044A009BEC9AE899400AED9BFDEC9AFCE899F836
:0E045A000FD5F0DAE4CDFBE4CCFAE4C8F922C9
:0E046800C3E49FFFE49EFEE49DFDE49CFC22A5
:10047600EB9FF5F0EA9E42F0E99D42F0E89C45F0DC
:010486002253
:10048700E8600FECC313FCED13FDEE13FEEF13FF53
:03049700D8F12277
:0C049A00ECF0A3EDF0A3EEF0A3EFF022D5
:100DE40090008BEBF0A3EAF0A3E9F0E4900093F019
:100DF400A3F090009174FFF5F012038445F0603C79
:100E040090008EE0FBA3E0FAA3E0F91202FBFF904E
:100E1400008BE0FBA3E0FAA3E0F9900093E475F003
:100E24000112038485F082F583EF1204D2EF60C2CD
:100E340090008FE475F00112036E80B690008BE091
:080E4400FBA3E0FAA3E0F92290
:10000E00E4FFFE1202FB600C0FEF70010E09E970A7
:05001E00F20A80EF2250
:10118E00E94A4B7001221202FBFF6D700122EF70D3
:0C119E0004FBFAF92209E970ED0A80EA6E
:1007810090008BEBF0A3EAF0A3E9F090008BE0FB83
:10079100A3E0FAA3E0F91202FBFF120026500C902D
:1007A100008CE475F00112036E80E0D20190008BA1
:1007B100E0FBA3E0FAA3E0F91202FBFF642B600463
:1007C100EFB42D1D90008BE0FBA3E475F001120343
:1007D10084A9F0FA1202FB642D6003D38001C39255
:1007E10001E490008EF0A3F090008BE0FBA3E0FA0F
:1007F100A3E0F91202FBFF1211F6504290008BE0C8
:10080100FBA3E0FAA3E0F91202FBFF3395E0FEEF50
:1008110024D0FBEE34FFFA90008EE0FEA3E0FF7CD3
:10082100007D0A120326EF2BFFEE3A90008EF0A313
:10083100EFF090008CE475F00112036E80AA300194
:100841000A90008EE0FEA3E0FF800F90008EE0FE94
:0B085100A3E0FFC3E49FFFE49EFE2233
:1004A600EF4E6012EF60010EEDBB010B89828A836D
:1004B600F0A3DFFCDEFA2289F05007F709DFFCA97A
:0C04C600F022BBFEFCF309DFFCA9F022D1
:100AF900020549E493A3F8E493A34003F68001F2C5
:100B090008DFF48029E493A3F85407240CC8C333FD
:100B1900C4540F4420C8834004F456800146F6DFCC
:100B2900E4800B0102040810204080901167E47EE4
:100B3900019360BCA3FF543F30E509541FFEE493C1
:100B4900A360010ECF54C025E060A840B8E493A388
:100B5900FAE493A3F8E493A3C8C582C8CAC583CAB3
:100B6900F0A3C8C582C8CAC583CADFE9DEE780BE6B
:01118D000061
:1004D200F8BB010DE58229F582E5833AF583E8F060
:1004E200225006E92582C8F622BBFE05E92582C80C
:0204F200F222F4
:1004F400BC000BBE0029EF8DF084FFADF022E4CCEC
:10050400F875F008EF2FFFEE33FEEC33FCEE9DECB4
:10051400984005FCEE9DFE0FD5F0E9E4CEFD22EDFA
:10052400F8F5F0EE8420D21CFEADF075F008EF2F44
:10053400FFED33FD4007985006D5F0F222C398FD35
:050544000FD5F0EA22D2
:0F11F600EFC394304007EF943A50028001C322B8
:10002600EFC394094005EF940E4004EFB42003D3C8
:040036008001C32260
:00000001FF
