:10119E0041006F004100000142003B00004200058B
:1011AE00001E420007000042000100004200030042
:0611BE0000420070000079
:03003B00020A6B4B
:100A6B00C0E0C0F0C083C082C0D075D000C000C051
:100A7B0001C002C003C004C005C006C007E5EC30CE
:100A8B00E46675EC0090006FE0702C20942943E92C
:100A9B004053EAEF43EB1004F0900000E4F0E0FF6A
:100AAB0012122D7F0A12122D900000E0FF12122D50
:100ABB007F0A12122D803190006FE0640170293093
:100ACB00942643E94043EA1053EBEFF09000000407
:100ADB00F0E0FF12122D7F0A12122D900000E0FFA2
:100AEB0012122D7F0A12122DD007D006D005D0047A
:100AFB00D003D002D001D000D0D0D082D083D0F0A0
:030B0B00D0E03205
:0409A900AB07AA06E8
:1009AD00E490009FF0A37409F0E4A3F0C3EA64801F
:1009BD009480500A7401F0C3E49BFBE49AFAEB4A6D
:1009CD0070149000A0E0FF14F074952FF582E434BC
:1009DD0000F5837430F0D3EB9400EA64809480408A
:0109ED0038D1
:1009EE007C007D0AAF03AE021203269000A2EDF04A
:1009FE00E02430FF9000A0E0FE14F074952EF582F6
:100A0E00E43400F583EFF07C007D0AAF03AE0212F2
:060A1E000326AA06AB0747
:100A240080BD9000A1E0B401149000A0E0FF14F098
:100A340074952FF582E43400F583742DF09000A0B2
:100A4400E00490009FF090009FE0C3940A5017E0E8
:100A54002495F582E43400F583E0FF12123D900002
:060A64009FE004F080E0B9
:010A6A002269
:01001F0022BE
:100C270090008BEEF0A3EFF0E0245AF090008BE0F9
:100C37003400F0C3E0648094805004E4F0A3F0D360
:100C470090008CE094B490008BE064809480400620
:100C5700E4F0A374B4F090008BE0FCA3E0FDEC1289
:100C670002417B1C7AC779B17841120136E4FBFA5D
:100C7700797A784412004512027A900005EEF0A3C3
:100C8700EFF0900005E0FF3395E08FD4E0A3E0F5A7
:100C9700DCD2DE90008CE024A6FF90008BE034FFCE
:020CA700FE222B
:0807D60090008BEEF0A3EFF0A0
:1007DE00E4A3F0A3F0D390008CE0940A90008BE099
:1007EE00648094804006E4F0A3740AF0C390008CF9
:1007FE00E094F690008BE06480947F500774FFF0D5
:10080E00A374F6F090008BE07002A3E07008F5D2AE
:10081E00F5DAF5D3F5DBD390008CE0940090008BE5
:10082E00E0648094804037E0FEA3E0FFEE3395E075
:10083E00FDFCE47B107A0EF9F8120388EF249FFF7B
:10084E00EE340F90008DF0A3EFF090008DE0FF33AB
:10085E0095E08FD2E0A3E0F5DAE4F5D3F5DBC390B3
:10086E00008BE064809480504CE0FEA3E0FFC3E474
:10087E009FFFE49E90008BF0A3EFF090008BE0FEC4
:10088E00A3E0FFEE3395E0FDFCE47B107A0EF9F861
:10089E00120388EF249FFFEE340F90008DF0A3EF2C
:1008AE00F0E4F5D2F5DA90008DE0FF3395E08FD3CA
:0F08BE00E0A3E0F5DBD2DE90008BE0FEA3E0FFCD
:0108CD002208
:1011C50043DE0143DE0253DF3F43DE0443DF0353C7
:1011D500DFFB75D19C75D93F75D20B75DAB8D2DEB8
:0311E500D2DF2234
:100B0E00E4FFFE900001E0FCA3E02409F5827400EE
:100B1E003CF583E0606A900001E0A3E02409F582D1
:100B2E0074003CF583E0FD743D2FF58274003EF5B4
:100B3E0083EDF0900001E0FCA3E02409F58274003F
:100B4E003CF583E4F00FEF70010E900002E004F02C
:100B5E007006900001E004F0C3900002E094329021
:100B6E000001E0648094804004E4F0A3F0743C2F14
:100B7E00F58274003EF583E0640A708780028083FC
:0C0B8E00743D2FF58274003EF583E4F006
:010B9A002238
:030023000210B810
:1010B800C0E0C083C082C0D075D000C00630983868
:1010C800C298900007E0FEA3E02409F58274003E70
:1010D800F583E599F0900008E004F07006900007A9
:1010E800E004F0C3900008E09432900007E06480C8
:1010F80094804004E4F0A3F0D006D0D0D082D0830E
:03110800D0E03202
:0B0DA20090008BEBF0A3EAF0A3E9F057
:100DAD0090008BE0F9A3E0FAA3E0A3C9F0A3EAF069
:100DBD00A3E9F090008BE0FBA3E0FAA3E0F91202A7
:100DCD00FB603B90008BE0A3E0A3E01202FB6420EC
:100DDD00602090008BE0A3E0A3E01202FBFF9000E7
:100DED008EE0FBA3E475F001120372A9F0FAEF1285
:100DFD00031490008CE475F00112035C80B5900033
:0D0E0D008EE0FBA3E0FAA3E0F9E412031469
:010E1A0022B5
:10059800E4F5B1F5B1F5B3F5B4F5ACF5ADFF7EC250
:1005A8007D01FC12110B7F007EC27D017C00120DC3
:1005B8002843B31053B4EFA2AF920075C7AA75C70A
:1005C8005575910143B11075C7AA75C755E4F591E2
:1005D800A20092AF43E94043EA1053EBEF90006F5B
:1005E800F043E901D2AF439B02D2AC1211C512000D
:0C05F8001FFFFE120C27E4FFFE1207D6C6
:10060400120B0E900072EEF0A3EFF0D3E094009082
:090614000072E06480948040E76C
:10061D00E4900074F0A3F0A3F0A3F07B017A0079CD
:10062D003D120026900072EEF0A3EFF07B017A00F0
:10063D00793D7D2C120003900088EBF0A3EAF0A326
:10064D00E9F07B007A007900C003C002C001900080
:10065D0088E0FBA3E0FAA3E0F9D082D083D0E06B71
:10066D007008E965827003EA6583608B7E007F0800
:10067D007D007B017A0079781204E37E007F087D8E
:10068D00007B017A0079801204E37B017A0079788E
:10069D00C003C00290008EEBF0A37400F0A3743D74
:1006AD00F0900088E0A3E0FAA3E0C3943DFEEA9445
:1006BD0000900091F0A3CEF0D002D003120E1B7B60
:1006CD00017A007980C003C002C001900088E0FB70
:1006DD00A3E0FAA3E02401F9E43AFA90008EEBF0DE
:1006ED00A3EAF0A3E9F0900088E0A3E0FAA3E0C349
:1006FD00943DFFEA9400FEC3900073E09FFF9000CD
:10070D0072E09ECF24FFCF34FF900091F0A3EFF065
:10071D00D001D002D003120E1B7B017A0079781222
:10072D000DA27B017A007980120DA27B017A0079EE
:10073D00781208CE900074EEF0A3EFF07B017A00F2
:10074D0079801208CE900076EEF0A3EFF0C3900002
:10075D0075E094F6900074E06480947F4021D3A3FB
:10076D00E0940A900074E0648094805012E0FEA33F
:10077D00E0FF1207D6900074EEF0A3EFF080099021
:10078D000074E4F0A374C8F0C3900077E094A690D1
:10079D000076E06480947F4022D3A3E0945A9000C9
:1007AD0076E0648094805013E0FEA3E0FF120C27E6
:1007BD00900076EEF0A3EFF002060490007674013F
:0507CD00F0A37490F0A0
:0407D20002060422F5
:10110B0053B1BF53B2BF53B17F53B27F75985043A6
:10111B008920438780438E1053C4DFAB07AA06A9EF
:10112B0005A8047F407E427D0F7C00120413EF0460
:09113B00F404F58DD28ED2992244
:100CA9009000A31204D753B1BF53B2BF53B17F53BE
:100CB900B27F75985043878053C4F843C42090008D
:100CC900A3E0F8A3E0F9A3E0FAA3E0FB7F407E42AA
:100CD9007D0F7C00120413C374FF9FFF74FF9EFEF7
:100CE900E49DFDE49CFC78081204C48FC69000A31F
:100CF900E0F8A3E0F9A3E0FAA3E0FB7F407E427DA0
:100D09000F7C00120413C374FF9FFF74FF9EFEE45F
:0F0D19009DFDE49CFCEFE48FC543C408D29922F2
:071225003098FDAF99C2985B
:01122C00229F
:08122D00C2998F993099FD224E
:100D280090008B1204D753B1FB53B2FB53B3BF539C
:100D3800B4BF75F85075C40853C4DF90008BE0F851
:100D4800A3E0F9A3E0FAA3E0FB7F407E427D0F7C9D
:100D580000120413C374FF9FFF74FF9EFEE49DFD01
:100D6800E49CFC78081204C48FC690008BE0F8A3BA
:100D7800E0F9A3E0FAA3E0FB7F407E427D0F7C0010
:100D8800120413C374FF9FFF74FF9EFEE49DFDE4ED
:0A0D98009CFCEFE48FC543C4082261
:0712350030F8FDAF9AC2F88A
:01123C00228F
:08123D00C2F98F9A30F9FD227D
:1011E80075C7AA75C755A2AF9200C2AF75C7AA75D1
:0A11F800C755439F80A20092AF226A
:10114400E4FDFCC3ED9FEE6480F8EC648098501CD1
:10115400E4FBFAC3EB94D9EA6480948250070BEB66
:0C11640070010A80EE0DED70010C80D7C8
:01117000225C
:10117100E4FDFCC3ED9FEE6480F8EC648098501CA4
:10118100E4FBFAC3EB9448EA6480948050070BEBCC
:0C11910070010A80EE0DED70010C80D79B
:01119D00222F
:100FA1009000A71204D7538EF7438901D28CE4FF36
:100FB100FEFDFC9000A7E0F8A3E0F9A3E0FAA3E0AE
:100FC100FBC31204B36033758A7E758CFF308DFDCF
:100FD100C28D9000A7E0FCA3E0FDA3E0FEA3E0FF2B
:100FE10074FFEF24FFFFEE34FFFEED34FFFDEC3420
:0D0FF100FFFC9000A71204D780B4C28C2230
:100FFE009000AB1204D7538EF7438901D28CE4FFD5
:10100E00FEFDFC9000ABE0F8A3E0F9A3E0FAA3E04C
:10101E00FBC31204B36033758ACA758CFA308DFD2A
:10102E00C28D9000ABE0FCA3E0FDA3E0FEA3E0FFC9
:10103E0074FFEF24FFFFEE34FFFEED34FFFDEC34C2
:0D104E00FFFC9000AB1204D780B4C28C22CE
:10105B009000AF1204D7538EEF438910D28EE4FF6A
:10106B00FEFDFC9000AFE0F8A3E0F9A3E0FAA3E0EB
:10107B00FBC31204B36033758BEA758DCB308FFDD8
:10108B00C28F9000AFE0FCA3E0FDA3E0FEA3E0FF66
:10109B0074FFEF24FFFFEE34FFFEED34FFFDEC3465
:0D10AB00FFFC9000AF1204D780B4C28E226B
:100E83009000B31204D753C9BF53C9DF43C910D26B
:100E9300CAE4FFFEFDFC9000B3E0F8A3E0F9A3E091
:100EA300FAA3E0FBC31204B3603375CC3075CDF8FD
:100EB30030CFFDC2CF9000B3E0FCA3E0FDA3E0FE82
:100EC300A3E0FF74FFEF24FFFFEE34FFFEED34FFDA
:100ED300FDEC34FFFC9000B31204D780B4C2CA22E5
:100EE3009000B71204D775C40743C408E4FFFEFD9E
:100EF300FC9000B7E0F8A3E0F9A3E0FAA3E0FBC39A
:100F03001204B3603675C52C75C6CFE5C430E4FB57
:100F130053C4EF9000B7E0FCA3E0FDA3E0FEA3E021
:100F2300FF74FFEF24FFFFEE34FFFEED34FFFDEC13
:0F0F330034FFFC9000B71204D780B153C4F722EB
:100F42009000BB1204D775C40743C408E4FFFEFD3A
:100F5200FC9000BBE0F8A3E0F9A3E0FAA3E0FBC336
:100F62001204B3603675C5D875C6FFE5C430E4FB1C
:100F720053C4EF9000BBE0FCA3E0FDA3E0FEA3E0BE
:100F8200FF74FFEF24FFFFEE34FFFEED34FFFDECB4
:0F0F920034FFFC9000BB1204D780B153C4F72288
:10003E000202E6E86480F8E933E83360110460F008
:10004E00ED33EC337009E8FCE9FDEAFEEBFF220428
:10005E0060DED3EB9FEA9EE99DE8C2E78CF0C2F723
:10006E0095F0400CE8CCF8E9CDF9EACEFAEBCFFBEF
:10007E001202B185D0F05804700320D5B3E8047095
:10008E00075002B2D50202F092D5EC0460F7E4CC30
:10009E00C0E0C398F8603B94186008400DD0E0FBB8
:1000AE000202C8E4FBFAC9FC8028E830E406E4C981
:1000BE00FBE4CAFCE830E305E4C9CACBFCE854070C
:1000CE006010F8C3E913F9EA13FAEB13FBEC13FC17
:1000DE00D8F130F52FC3E49CFCEF9BFFEE9AFEEDBA
:1000EE0099FDD0E0FBEF4E4D4C701222DB03020265
:1000FE00EDEC2CFCEF33FFEE33FEED33FDED30E790
:10010E00EB0202C8EF2BFFEE3AFEED39FDD0E0FB1D
:10011E0050130BBB00030202F0ED13FDEE13FEEFC6
:08012E0013FFEC13FC0202C8F0
:10013600EC4D6011E8497017ED33EC3304600DE4C3
:10014600FCFFFEFD22E933E8330470F80202E612F2
:1001560002B158046009E4CC2481500628500902F3
:1001660002F02840030202EDC0E0EB4A7044B98079
:1001760006D0E0FB0202DCEF4E701CBD8008EBFFF0
:10018600EAFEE9FD80EBE98DF0A4FEE5F002021F30
:10019600E9CDF9EAFEEBFFEF89F0A4FCE5F0CE89A4
:1001A600F0A42EFFE435F0CD89F0A42DFEE435F061
:1001B6008067EF4E7005BD80D780C3EF8BF0A4AC8F
:1001C600F0EE8BF0A42CFCE435F0F8EF8AF0A42CCA
:1001D600E5F038FCE433CB8DF0A42CFCE5F03BF8DD
:1001E600EE8AF0A42CFCE5F038F8E433CF89F0A4CD
:1001F6002CFCE5F038CF3400CE89F0A42FFFE5F0D3
:100206003EFEE433C98DF0A42EFEE5F039CD8AF02A
:10021600A42FFFE5F03EFEE43DFD33D0E0FB5007A2
:100226000BBB000F0202F0EC2CFCEF33FFEE33FEAB
:06023600ED33FD0202C8D9
:10023C0075F020800E75F010800575F0087D007E3D
:10024C00007F003392D530D5031204A5EC33401057
:10025C00EF33FFEE33FEED33FDEC33FCD5F0ED2246
:0E026C00E5F0247EA2D513CC92E7CDCEFF2282
:10027A00EDD2E7CD33EC3392D524814006E4FFFE7C
:10028A00FDFC22FCE4CFCECDCC24E0501174FF80DB
:10029A00EDC3CC13CCCD13CDCE13CECF13CF047078
:0702AA00F030D5DE0204A5CF
:1002B100E9D2E7C933E833F892D5EDD2E7CD33EC93
:0702C10033FC5002B2D5220C
:1002C800EC30E7100FBF000C0EBE00080DBD000497
:1002D8000BEB6014A2D5EB13FCED92E7FD2274FF43
:1002E800FCFDFEFF22E480F8A2D574FF13FC7D809C
:0302F800E480EFB0
:03000000020B9B55
:0C0B9B00787FE4F6D8FD758120020BE2A3
:1002FB00BB010689828A83E0225002E722BBFE0201
:09030B00E32289828A83E4932233
:10031400BB010689828A83F0225002F722BBFE01C8
:02032400F322C2
:10032600C2D5EC30E709B2D5E4C39DFDE49CFCEEF2
:1003360030E715B2D5E4C39FFFE49EFE120543C322
:10034600E49DFDE49CFC800312054330D507C3E41D
:060356009FFFE49EFE2261
:10035C00C5F0F8A3E028F0C5F0F8E582158270022C
:06036C001583E038F022C9
:10037200A3F8E0C5F025F0F0E5821582700215833E
:06038200E0C838F0E8229B
:10038800E88FF0A4CC8BF0A42CFCE98EF0A42CFC14
:100398008AF0EDA42CFCEA8EF0A4CDA8F08BF0A492
:1003A8002DCC3825F0FDE98FF0A42CCD35F0FCEBF1
:1003B8008EF0A4FEA9F0EB8FF0A4CFC5F02ECD39B6
:0F03C800FEE43CFCEAA42DCE35F0FDE43CFC2223
:1003D70075F008758200EF2FFFEE33FECD33CDCCDD
:1003E70033CCC58233C5829BED9AEC99E582984060
:1003F7000CF582EE9BFEED9AFDEC99FC0FD5F0D63D
:10040700E4CEFBE4CDFAE4CCF9A88222B800C1B966
:100417000059BA002DEC8BF084CFCECDFCE5F0CBA4
:10042700F97818EF2FFFEE33FEED33FDEC33FCEBDD
:1004370033FB10D703994004EB99FB0FD8E5E4F998
:10044700FA227818EF2FFFEE33FEED33FDEC33FC85
:10045700C933C910D7059BE99A4007EC9BFCE99A79
:10046700F90FD8E0E4C9FAE4CCFB2275F010EF2FBE
:10047700FFEE33FEED33FDCC33CCC833C810D707BE
:100487009BEC9AE899400AED9BFDEC9AFCE899F8F9
:0E0497000FD5F0DAE4CDFBE4CCFAE4C8F9228C
:0E04A500C3E49FFFE49EFEE49DFDE49CFC2268
:1004B300EB9FF5F0EA9E42F0E99D42F0E89C45F09F
:0104C3002216
:1004C400E8600FECC313FCED13FDEE13FEEF13FF16
:0304D400D8F1223A
:0C04D700ECF0A3EDF0A3EEF0A3EFF02298
:100E1B0090008BEBF0A3EAF0A3E9F0E4900093F0E1
:100E2B00A3F090009174FFF5F012037245F0603C53
:100E3B0090008EE0FBA3E0FAA3E0F91202FBFF9017
:100E4B00008BE0FBA3E0FAA3E0F9900093E475F0CC
:100E5B000112037285F082F583EF12050FEF60C26A
:100E6B0090008FE475F00112035C80B690008BE06C
:080E7B00FBA3E0FAA3E0F92259
:10002600E4FFFE1202FB600C0FEF70010E09E9708F
:05003600F20A80EF2238
:10000300E94A4B7001221202FBFF6D700122EF706F
:0C00130004FBFAF92209E970ED0A80EA0A
:1008CE0090008BEBF0A3EAF0A3E9F090008BE0FB35
:1008DE00A3E0FAA3E0F91202FBFF121202500C90F1
:1008EE00008CE475F00112035C80E0D20190008B65
:1008FE00E0FBA3E0FAA3E0F91202FBFF642B600415
:10090E00EFB42D1D90008BE0FBA3E475F0011203F4
:10091E0072A9F0FA1202FB642D6003D38001C39218
:10092E0001E490008EF0A3F090008BE0FBA3E0FAC0
:10093E00A3E0F91202FBFF121216504290008BE058
:10094E00FBA3E0FAA3E0F91202FBFF3395E0FEEF02
:10095E0024D0FBEE34FFFA90008EE0FEA3E0FF7C85
:10096E00007D0A120531EF2BFFEE3A90008EF0A3B8
:10097E00EFF090008CE475F00112035C80AA300158
:10098E000A90008EE0FEA3E0FF800F90008EE0FE46
:0B099E00A3E0FFC3E49FFFE49EFE22E5
:1004E300EF4E6012EF60010EEDBB010B89828A8330
:1004F300F0A3DFFCDEFA2289F05007F709DFFCA93D
:0C050300F022BBFEFCF309DFFCA9F02293
:100BA700020598E493A3F8E493A34003F68001F2C7
:100BB70008DFF48029E493A3F85407240CC8C3334F
:100BC700C4540F4420C8834004F456800146F6DF1E
:100BD700E4800B010204081020408090119EE47EFF
:100BE700019360BCA3FF543F30E509541FFEE49313
:100BF700A360010ECF54C025E060A840B8E493A3DA
:100C0700FAE493A3F8E493A3C8C582C8CAC583CA04
:100C1700F0A3C8C582C8CAC583CADFE9DEE780BEBC
:0111C400002A
:10050F00F8BB010DE58229F582E5833AF583E8F022
:10051F00225006E92582C8F622BBFE05E92582C8CE
:02052F00F222B6
:10053100EF8DF0A4A8F0CF8CF0A428CE8DF0A42EDE
:02054100FE2298
:10054300BC000BBE0029EF8DF084FFADF022E4CC9C
:10055300F875F008EF2FFFEE33FEEC33FCEE9DEC65
:10056300984005FCEE9DFE0FD5F0E9E4CEFD22EDAB
:10057300F8F5F0EE8420D21CFEADF075F008EF2FF5
:10058300FFED33FD4007985006D5F0F222C398FDE6
:050593000FD5F0EA2283
:0F121600EFC394304007EF943A50028001C32297
:10120200EFC394094005EF940E4004EFB42003D3DA
:041212008001C32272
:00000001FF
