:0B18AE007365743A25642C25640A0061
:1018040042003A0000420004001E4200060000426A
:0E18140000000000420002000042006E0000D2
:040F8000AB07AA060B
:100F8400E49000C3F0A37409F0E4A3F0C3EA64801E
:100F94009480500A7401F0C3E49BFBE49AFAEB4A90
:100FA40070149000C4E0FF14F074B92FF582E43497
:100FB40000F5837430F0D3EB9400EA6480948040AD
:010FC40038F4
:100FC5007C007D0AAF03AE0212059F9000C6EDF0CE
:100FD500E02430FF9000C4E0FE14F074B92EF582D1
:100FE500E43400F583EFF07C007D0AAF03AE021216
:060FF500059FAA06AB07F0
:100FFB0080BD9000C5E0B401149000C4E0FF14F074
:10100B0074B92FF582E43400F583742DF09000C48D
:10101B00E0049000C3F09000C3E0C3940A5017E0C3
:10102B0024B9F582E43400F583E0FF1218C990006F
:06103B00C3E004F080E0B8
:01104100228C
:03000B0002137A63
:10137A00C0E0C083C082C0D075D000C000C006C023
:10138A0007C28DC28C758ABF758CFFD28C900004FF
:10139A00E0FEA3E0FFD390003BE09FEE6480F8906C
:1013AA00003AE06480985004D2908002C290900083
:1013BA003BE004F0700690003AE004F0C390003B72
:1013CA00E0949090003AE0648094814004E4F0A3B1
:1013DA00F0D007D006D000D0D0D082D083D0E0326F
:10183F0053B3FE43B4015389F0538EF743890175B7
:0A184F008AEA758CCBD2A9D28C2254
:1013EA00900089EEF0A3EFF0E0245AF0900089E033
:1013FA003400F0C3E0648094805004E4F0A3F0D396
:10140A0090008AE094B4900089E064809480400659
:10141A00E4F0A374B4F0900089E0FCA3E0FDEC12C0
:10142A0002297B837A2D7958783E12011EE4FBFA51
:10143A00F9784112002D120262900004EEF0A3EF37
:10144A00F090008AE024A6FF900089E034FFFE2293
:04104200AB07AA0648
:10104600E4900089F0A3F0D3EB940AEA64809480DC
:1010560040047A007B0AC3EB94F6EA6480947F50DE
:10106600047AFF7BF6EB4A7008F5D2F5DAF5D3F58C
:10107600DBD3EB9400EA64809480402C7C007DB343
:10108600AF03AE0212058DEF24C8FFE43E9000893F
:10109600F0A3EFF0900089E0FF3395E08FD2E0A354
:1010A600E0F5DAE4F5D3F5DBC3EA648094805032E8
:1010B600C3E49BFBE49AFA7C007DB3AF03FE120502
:1010C6008DEF24C8FFE43E900089F0A3EFF0E4F52D
:1010D600D2F5DA900089E0FF3395E08FD3E0A3E004
:0810E600F5DBD2DEAE02AF0320
:0110EE0022DF
:1018730043DE0143DE0253DF3F43DF0353DFFB75E8
:08188300D10775D9CFD2DF2295
:1010EF00E4FFFE900000E0FCA3E02408F58274000A
:1010FF003CF583E0606A900000E0A3E02408F582ED
:10110F0074003CF583E0FD743C2FF58274003EF5CE
:10111F0083EDF0900000E0FCA3E02408F58274005A
:10112F003CF583E4F00FEF70010E900001E004F046
:10113F007006900000E004F0C3900001E09432903C
:10114F000000E0648094804004E4F0A3F0743B2F2F
:10115F00F58274003EF583E0640A70878002808315
:0C116F00743C2FF58274003EF583E4F020
:01117B002251
:030023000216F7CB
:1016F700C0E0C083C082C0D075D000C00630983823
:10170700C298900006E0FEA3E02408F58274003E2C
:10171700F583E599F0900007E004F0700690000665
:10172700E004F0C3900007E09432900006E0648084
:1017370094804004E4F0A3F0D006D0D0D082D083C8
:03174700D0E032BD
:0B130100900089EBF0A3EAF0A3E9F0F4
:10130C00900089E0F9A3E0FAA3E0A3C9F0A3EAF006
:10131C00A3E9F0900089E0FBA3E0FAA3E0F9120541
:10132C0035603B900089E0A3E0A3E0120535642012
:10133C006020900089E0A3E0A3E0120535FF900047
:10134C008CE0FBA3E475F0011205EBA9F0FAEF12A7
:10135C00057B90008AE475F0011205D580B59000EC
:0D136C008CE0FBA3E0FAA3E0F9E412057B9E
:011379002251
:100C7900E4F5B1F5B1F5B3F5B4F5ACF5ADFF7EC268
:100C89007D01FC12174A7F007EC27D017C00121291
:100C990087D2AF439B02D2AC12183FE4FFFE121376
:040CA900EA121873C0
:100CAD001210EF900070EEF0A3EFF0D3E0940090EF
:090CBD000070E06480948040E7BF
:100CC600E4900072F0A3F0A3F0A3F07B017A007920
:100CD6003C12000E900070EEF0A3EFF07B017A005C
:100CE600793C7D2C121823900086EBF0A3EAF0A342
:100CF600E9F07B007A007900C003C002C0019000D1
:100D060086E0FBA3E0FAA3E0F9D082D083D0E06BC3
:100D16007008E965827003EA6583608B7E007F0850
:100D26007D007B017A0079761207537E007F087D6D
:100D3600007B017A00797E1207537B017A0079766F
:100D4600C003C00290008CEBF0A37400F0A3743CC7
:100D5600F0900086E0A3E0FAA3E0C3943CFEEA9498
:100D66000090008FF0A3CEF0D002D00312145A7B6D
:100D7600017A00797EC003C002C001900086E0FBC4
:100D8600A3E0FAA3E02401F9E43AFA90008CEBF030
:100D9600A3EAF0A3E9F0900086E0A3E0FAA3E0C39B
:100DA600943CFFEA9400FEC3900071E09FFF900020
:100DB60070E09ECF24FFCF34FF90008FF0A3EFF0BA
:100DC600D001D002D00312145A7B017A0079761230
:100DD60013017B017A00797E1213017B017A007977
:100DE60076120EA5900072EEF0A3EFF07B017A006A
:100DF600797E120EA5900074EEF0A3EFF0C390007A
:100E060073E094F6900072E06480947F4021D3A34F
:100E1600E0940A900072E0648094805012E0FEA391
:100E2600E0FF121042900072EEF0A3EFF0800990FE
:100E36000072E4F0A374C8F0C3900075E094A69025
:100E46000074E06480947F4021D3A3E0945A90001C
:100E560074E0648094805012E0FEA3E0FF1213EA6F
:100E6600900074EEF0A3EFF0800A9000747401F025
:100E7600A37490F07BFF7A1879AE900072E0FFA31E
:100E8600E090008CCFF0A3EFF0900074E0FFA3E0B9
:0B0E960090008ECFF0A3EFF012086177
:040EA100020CAD2270
:10174A0053B1BF53B2BF53B17F53B27F7598504361
:10175A008920438780438E1053C4DFAB07AA06A9AA
:10176A0005A8047F407E427D0F7C0012063DEF04EF
:09177A00F404F58DD28ED29922FF
:101208009000C712070153B1BF53B2BF53B17F5308
:10121800B27F75985043878053C4F843C420900028
:10122800C7E0F8A3E0F9A3E0FAA3E0FB7F407E4221
:101238007D0F7C0012063DC374FF9FFF74FF9EFE66
:10124800E49DFDE49CFC78081206EE8FC69000C76A
:10125800E0F8A3E0F9A3E0FAA3E0FB7F407E427D3B
:101268000F7C0012063DC374FF9FFF74FF9EFEE4CF
:0F1278009DFDE49CFCEFE48FC543C408D299228E
:070003003098FDAF99C2988F
:01000A0022D3
:0818B900C2998F993099FD22BC
:1012870090008912070153B1FB53B2FB53B3BF530D
:10129700B4BF75F85075C40853C4DF900089E0F8EF
:1012A700A3E0F9A3E0FAA3E0FB7F407E427D0F7C39
:1012B7000012063DC374FF9FFF74FF9EFEE49DFD71
:1012C700E49CFC78081206EE8FC6900089E0F8A32C
:1012D700E0F9A3E0FAA3E0FB7F407E427D0F7C00AC
:1012E70012063DC374FF9FFF74FF9EFEE49DFDE45D
:0A12F7009CFCEFE48FC543C40822FD
:0718C10030F8FDAF9AC2F8F8
:0118C80022FD
:0818C900C2F98F9A30F9FD22EB
:1018590075C7AA75C755A2AF9209C2AF75C7AA7550
:0A186900C755439F80A20992AF22E9
:10178300E4FDFCC3ED9FEE6480F8EC648098501C8C
:10179300E4FBFAC3EB94D9EA6480948250070BEB21
:0C17A30070010A80EE0DED70010C80D783
:0117AF002217
:1017B000E4FDFCC3ED9FEE6480F8EC648098501C5F
:1017C000E4FBFAC3EB9448EA6480948050070BEB87
:0C17D00070010A80EE0DED70010C80D756
:0117DC0022EA
:1015E0009000CB120701538EF7438901D28CE4FFA0
:1015F000FEFDFC9000CBE0F8A3E0F9A3E0FAA3E045
:10160000FBC31206DD6033758A7E758CFF308DFD5D
:10161000C28D9000CBE0FCA3E0FDA3E0FEA3E0FFC1
:1016200074FFEF24FFFFEE34FFFEED34FFFDEC34DA
:0D163000FFFC9000CB12070180B4C28C2299
:10163D009000CF120701538EF7438901D28CE4FF3E
:10164D00FEFDFC9000CFE0F8A3E0F9A3E0FAA3E0E3
:10165D00FBC31206DD6033758ACA758CFA308DFDB9
:10166D00C28D9000CFE0FCA3E0FDA3E0FEA3E0FF60
:10167D0074FFEF24FFFFEE34FFFEED34FFFDEC347D
:0D168D00FFFC9000CF12070180B4C28C2238
:10169A009000D3120701538EEF438910D28EE4FFD4
:1016AA00FEFDFC9000D3E0F8A3E0F9A3E0FAA3E082
:1016BA00FBC31206DD6033758BEA758DCB308FFD67
:1016CA00C28F9000D3E0FCA3E0FDA3E0FEA3E0FFFD
:1016DA0074FFEF24FFFFEE34FFFEED34FFFDEC3420
:0D16EA00FFFC9000D312070180B4C28E22D5
:1014C2009000D712070153C9BF53C9DF43C910D2D5
:1014D200CAE4FFFEFDFC9000D7E0F8A3E0F9A3E028
:1014E200FAA3E0FBC31206DD603375CC3075CDF88C
:1014F20030CFFDC2CF9000D7E0FCA3E0FDA3E0FE19
:10150200A3E0FF74FFEF24FFFFEE34FFFEED34FF94
:10151200FDEC34FFFC9000D712070180B4C2CA224E
:101522009000DB12070175C40743C408E4FFFEFD07
:10153200FC9000DBE0F8A3E0F9A3E0FAA3E0FBC330
:101542001206DD603675C52C75C6CFE5C430E4FBE6
:1015520053C4EF9000DBE0FCA3E0FDA3E0FEA3E0B8
:10156200FF74FFEF24FFFFEE34FFFEED34FFFDECCE
:0F15720034FFFC9000DB12070180B153C4F72255
:101581009000DF12070175C40743C408E4FFFEFDA4
:10159100FC9000DFE0F8A3E0F9A3E0FAA3E0FBC3CD
:1015A1001206DD603675C5D875C6FFE5C430E4FBAB
:1015B10053C4EF9000DFE0FCA3E0FDA3E0FEA3E055
:1015C100FF74FFEF24FFFFEE34FFFEED34FFFDEC6F
:0F15D10034FFFC9000DF12070180B153C4F722F2
:100026000202CEE86480F8E933E83360110460F038
:10003600ED33EC337009E8FCE9FDEAFEEBFF220440
:1000460060DED3EB9FEA9EE99DE8C2E78CF0C2F73B
:1000560095F0400CE8CCF8E9CDF9EACEFAEBCFFB07
:1000660012029985D0F05804700320D5B3E80470C5
:10007600075002B2D50202D892D5EC0460F7E4CC60
:10008600C0E0C398F8603B94186008400DD0E0FBD0
:100096000202B0E4FBFAC9FC8028E830E406E4C9B1
:1000A600FBE4CAFCE830E305E4C9CACBFCE8540724
:1000B6006010F8C3E913F9EA13FAEB13FBEC13FC2F
:1000C600D8F130F52FC3E49CFCEF9BFFEE9AFEEDD2
:1000D60099FDD0E0FBEF4E4D4C701222DB0302027D
:1000E600D5EC2CFCEF33FFEE33FEED33FDED30E7C0
:1000F600EB0202B0EF2BFFEE3AFEED39FDD0E0FB4E
:1001060050130BBB00030202D8ED13FDEE13FEEFF6
:0801160013FFEC13FC0202B020
:10011E00EC4D6011E8497017ED33EC3304600DE4DB
:10012E00FCFFFEFD22E933E8330470F80202CE1222
:10013E00029958046009E4CC248150062850090223
:10014E0002D82840030202D5C0E0EB4A7044B980C1
:10015E0006D0E0FB0202C4EF4E701CBD8008EBFF20
:10016E00EAFEE9FD80EBE98DF0A4FEE5F002020760
:10017E00E9CDF9EAFEEBFFEF89F0A4FCE5F0CE89BC
:10018E00F0A42EFFE435F0CD89F0A42DFEE435F079
:10019E008067EF4E7005BD80D780C3EF8BF0A4ACA7
:1001AE00F0EE8BF0A42CFCE435F0F8EF8AF0A42CE2
:1001BE00E5F038FCE433CB8DF0A42CFCE5F03BF8F5
:1001CE00EE8AF0A42CFCE5F038F8E433CF89F0A4E5
:1001DE002CFCE5F038CF3400CE89F0A42FFFE5F0EB
:1001EE003EFEE433C98DF0A42EFEE5F039CD8AF043
:1001FE00A42FFFE5F03EFEE43DFD33D0E0FB5007BB
:10020E000BBB000F0202D8EC2CFCEF33FFEE33FEDB
:06021E00ED33FD0202B009
:1002240075F020800E75F010800575F0087D007E55
:10023400007F003392D530D5031206CFEC33401043
:10024400EF33FFEE33FEED33FDEC33FCD5F0ED225E
:0E025400E5F0247EA2D513CC92E7CDCEFF229A
:10026200EDD2E7CD33EC3392D524814006E4FFFE94
:10027200FDFC22FCE4CFCECDCC24E0501174FF80F3
:10028200EDC3CC13CCCD13CDCE13CECF13CF047090
:07029200F030D5DE0206CFBB
:1007F600E508248CF582E43400F583E005082290B0
:10080600008930070390008CE475F00112070D0291
:1008160005352000E97F2ED2008018EF540F249072
:10082600D43440D4FF30040BEF24BFB41A00500375
:100836002461FFE50960021509050CE50C70020547
:100846000B30070E900089E475F00112070DEF02D8
:10085600057B0217DD7403D2078003E4C207F5089F
:10086600900089120724E4F509F50BF50CE50960FB
:10087600077F2012083980F5750AFFC201C200C23F
:1008860002C203C205C206C208120805FF700D3077
:1008960007057F0012084AAF0CAE0B22B4255FC2D3
:1008A600D5C204120805FF24D0B40A00501A75F008
:1008B6000A780930D50508B6FF0106C6A426F62033
:1008C600D5047002D20380D924CFB41A00EF5004A5
:1008D600C2E5D204020B3CD20180C6D20080C0D24F
:1008E6000280BCD2D580BAD20580B47F20120839E6
:1008F6002002077401B5090040F11207F6FF12083D
:1009060039020873D208D20680951207F6FB120741
:10091600F6FA1207F6F94A4B7006793A7A0C7BFF1B
:1009260020022EE509602A7E008E8275830012055C
:100936004E60060EEE650A70F0C2D5EBC0E0EAC066
:10094600E0E9C0E0EE120B9DD0E0F9D0E0FAD0E08D
:10095600FB120535FF60AAEBC0E0EAC0E0E9C0E0A3
:10096600120839D0E02401F9D0E03400FAD0E0FBD7
:10097600E50A0460DCD50AD98087D20280A2120B70
:100986007F60F7E50A7001041202E3A90A600DE52B
:100996000A600914F50A120C27EF60F3EA30E70241
:1009A600F404C3995079EAF4250A0430E701E40413
:1009B600F50A800D120B7F60C1EA050A250A1202AC
:1009C600E3EA9000B8F030E701E4250A04D50A040A
:1009D60020050114120B9DE4C0E0120C279000B80C
:1009E600E0601320E70714F0120821802204F0D0FB
:1009F600E014C0E07F00120821E50A60071208181B
:100A0600150A800B300503120818D0E0020873D0CF
:100A1600E00480C4120B7F609EE50A041202E39094
:100A260000B8EAF0E50A2005026001042404120B6E
:010A36009D22
:100A370074FF04C0E0120C27120821E50A20050202
:100A47006003120818D0E0B50AE87F4512082B901A
:100A570000B8E07F2B30E7047F2DF404C0E01208D4
:100A670039D0E075F00A84C0F0120822D0E01208ED
:100A770022020873791080027908C206C20880082A
:100A8700D2D5790A8004790AC2D5E50A047002F53D
:100A97000AE4FAFDFEFF1207F6FC7B082001131299
:100AA70007F6FD7B1030000A1207F6FE1207F6FF65
:100AB7007B20EC3382D592D55013C3E43000069FD8
:100AC700FFE49EFEE42001039DFDE49CFCE4CBF8DB
:100AD700C201EC700CCFCECDCCE824F8F870F380CF
:100AE70017C3EF33FFEE33FEED33FDEC33FCEB338F
:100AF700FB994002FB0FD8E9EB300105F8D0E0C4C1
:100B070048B201C0E00AEC4D4E4F78207B0070C21E
:100B1700EAB50A0040BCC0E0120B9FD0F0D0E0203D
:100B27000104C4C0E0C4B201C0F0120822D0F0D55D
:100B3700F0EB02087312072D0910530A7B5808E1DE
:100B47004C08DD420A7F4F0A87440A874908F64363
:100B57000A8D5509BA460A1A450984470C5A50089E
:100B6700E52D08E92E090C2B08ED23090A200C4373
:100B77002A08A54800000904E50AB4FF03750A0618
:100B87001207F6FC1207F6FD1207F6FE1207F6FF2C
:100B97009000B1020320790AA2D520031430050979
:100BA700B910020404B9080104A2D52006025001B5
:100BB700042002689202B509005034C0E07F20305B
:100BC70003197F30A20272067205500F120BF6C28C
:100BD70002C206C205C2087F30800F300503E9C094
:100BE700E0120839300503D0E0F9D0E0B509CC3080
:100BF70005177F30B9100C1208397F583004077F6A
:100C0700788003B908031208393002057F2D0208DE
:100C1700397F202008F87F2B2006F322920280CF0D
:100C27007F00B40700500B24B1F582E43400F5834C
:100C3700E0FF22286E756C6C2900D2011207F6308E
:100C470001F8C201780930D50108F60208A52D5030
:100C57004349581207F62403B405004001E4900CF9
:100C6700559312082A743A12082AD2037509040206
:020C77000A7BF6
:10029900E9D2E7C933E833F892D5EDD2E7CD33ECAB
:0702A90033FC5002B2D52224
:1002B000EC30E7100FBF000C0EBE00080DBD0004AF
:1002C0000BEB6014A2D5EB13FCED92E7FD2274FF5B
:1002D000FCFDFEFF22E480F8A2D574FF13FC7D80B4
:0302E000E480EFC8
:1002E300F920E73624F950037907E4F42402FBE507
:1002F30082158270021583DBF6E024FB501BE96054
:1003030014E4F0E582158270021583E004F0B40A68
:0D03130008E4F0D9EE7401F00A22C2D522F0
:10032000ED33EC3392D5FA602AB4FF33EDC2E77BAC
:10033000FF60067A037945E4227A03794E20D504DA
:100340007A037949224E614E002B494E46002D49D1
:100350004E4600E47A08F0A3DAFC7B00740722C062
:1003600083C082ECC0E0EDC0E0EEC0E0EFC0E0EAA8
:1003700075F010A4CAABF075F04DA42BFBE435F07A
:10038000FCEA2410FAEB34C5FBEC34D9FCEDC2E7EF
:10039000FF75F056A4F42411C5F0F434C58FF0A411
:1003A0002AE5F03BE43CF020E7141204F5D0E0FF2E
:1003B000D0E0FED0E0FDD0E0FC1204288014F4046C
:1003C0001204F5D0E0FFD0E0FED0E0FDD0E0FC125A
:1003D000011ED082D083E0FAEDD2E7CD33EC332496
:1003E00082FBE4C3CF33CFCE33CECD33CD33DBF37B
:1003F0007B0775F00A846004F0A31B0AE5F0F0A304
:100400008FF0740AA4FFACF08EF0740AA42CFEAC3A
:10041000F050010C8DF0740AA42CFDE435F0F0A32B
:05042000DBDE74072281
:100425000202D8EC5D046005E8590470030202CEAF
:10043500120299580460F6EC4860F2EC7004FDFE77
:10044500FF22C860DB2481C85009C39860025006AA
:100455000202D59850CAF582E9294B4A7005AB824C
:100465000202C475F0007C1A7880C3EF9BEE9AED0A
:1004750099400DC3EF9BFFEE9AFEED99FDE842F022
:10048500DC23ACF0D0E0FFD0E0FED0E0FDAB822075
:10049500E7101BEB60BAEC2CFCEF33FFEE33FEEDFF
:1004A50033FD0202B0E803F830E705C0F075F0004F
:1004B500EF2FFFEE33FEED33FD40B830E7C280AAE3
:1004C5003F8000004120000042C80000447A00003F
:1004D500461C400047C35000497424004B189680C1
:1004E5004CBEBC205A0E1BCA6753C21C749DC5AEB8
:1004F500FB60065407601C2323120523EB54386068
:100505000912050F12051E12011EECF8EDF9EEFA9F
:10051500EFCB22EB12051E80F1543803241C900406
:10052500C5FE93FC0EEE93FD0EEE930ECE93FF22C9
:0300000002117C6E
:0C117C00787FE4F6D8FD7581210211C3D4
:10053500BB010689828A83E0225002E722BBFE02C4
:09054500E32289828A83E49322F7
:10054E00BB010CE58229F582E5833AF583E0225062
:10055E0006E92582F8E622BBFE06E92582F8E222AC
:0D056E00E58229F582E5833AF583E49322C6
:10057B00BB010689828A83F0225002F722BBFE015F
:02058B00F32259
:10058D00EF8DF0A4A8F0CF8CF0A428CE8DF0A42E82
:02059D00FE223C
:10059F00C2D5EC30E709B2D5E4C39DFDE49CFCEE77
:1005AF0030E715B2D5E4C39FFFE49EFE1207A1C347
:1005BF00E49DFDE49CFC80031207A130D507C3E442
:0605CF009FFFE49EFE22E6
:1005D500C5F0F8A3E028F0C5F0F8E58215827002B1
:0605E5001583E038F0224E
:1005EB00A3F8E0C5F025F0F0E582158270021583C3
:0605FB00E0C838F0E82220
:1006010075F008758200EF2FFFEE33FECD33CDCCB0
:1006110033CCC58233C5829BED9AEC99E582984033
:100621000CF582EE9BFEED9AFDEC99FC0FD5F0D610
:10063100E4CEFBE4CDFAE4CCF9A88222B800C1B93A
:100641000059BA002DEC8BF084CFCECDFCE5F0CB78
:10065100F97818EF2FFFEE33FEED33FDEC33FCEBB1
:1006610033FB10D703994004EB99FB0FD8E5E4F96C
:10067100FA227818EF2FFFEE33FEED33FDEC33FC59
:10068100C933C910D7059BE99A4007EC9BFCE99A4D
:10069100F90FD8E0E4C9FAE4CCFB2275F010EF2F92
:1006A100FFEE33FEED33FDCC33CCC833C810D70792
:1006B1009BEC9AE899400AED9BFDEC9AFCE899F8CD
:0E06C1000FD5F0DAE4CDFBE4CCFAE4C8F92260
:0E06CF00C3E49FFFE49EFEE49DFDE49CFC223C
:1006DD00EB9FF5F0EA9E42F0E99D42F0E89C45F073
:0106ED0022EA
:1006EE00E8600FECC313FCED13FDEE13FEEF13FFEA
:0306FE00D8F1220E
:0C070100ECF0A3EDF0A3EEF0A3EFF0226B
:10070D00F8E0FBA3A3E0F925F0F0E5821582700275
:07071D001583E0FA38F02219
:09072400EBF0A3EAF0A3E9F022D6
:10072D00D083D082F8E4937012740193700DA3A35B
:10073D0093F8740193F5828883E47374029368606F
:06074D00EFA3A3A380DF6F
:1017DD00EFB40A07740D1217E8740A309811A8991E
:1017ED00B8130CC2983098FDA899C298B811F6306C
:0717FD0099FDC299F5992244
:10145A00900089EBF0A3EAF0A3E9F0E4900091F0A0
:10146A00A3F090008F74FFF5F01205EB45F0603C95
:10147A0090008CE0FBA3E0FAA3E0F9120535FF9097
:10148A000089E0FBA3E0FAA3E0F9900091E475F08B
:10149A00011205EB85F082F583EF12077FEF60C238
:1014AA0090008DE475F0011205D580B6900089E0B0
:0814BA00FBA3E0FAA3E0F92214
:10000E00E4FFFE120535600C0FEF70010E09E9706A
:05001E00F20A80EF2250
:10182300E94A4B700122120535FF6D700122EF70FA
:0C18330004FBFAF92209E970ED0A80EAD2
:100EA500900089EBF0A3EAF0A3E9F0900089E0FB5C
:100EB500A3E0FAA3E0F9120535FF12188B500C9048
:100EC500008AE475F0011205D580E0D20090008912
:100ED500E0FBA3E0FAA3E0F9120535FF642B6004FB
:100EE500EFB42D1D900089E0FBA3E475F001120518
:100EF500EBA9F0FA120535642D6003D38001C39286
:100F050000E490008CF0A3F0900089E0FBA3E0FAE8
:100F1500A3E0F9120535FF12189F5042900089E0B1
:100F2500FBA3E0FAA3E0F9120535FF3395E0FEEFE8
:100F350024D0FBEE34FFFA90008CE0FEA3E0FF7CAA
:100F4500007D0A12058DEF2BFFEE3A90008CF0A381
:100F5500EFF090008AE475F0011205D580AA300003
:100F65000A90008CE0FEA3E0FF800F90008CE0FE6D
:0B0F7500A3E0FFC3E49FFFE49EFE2208
:10075300EF4E6012EF60010EEDBB010B89828A83BD
:10076300F0A3DFFCDEFA2289F05007F709DFFCA9CA
:0C077300F022BBFEFCF309DFFCA9F02221
:10118800020C79E493A3F8E493A34003F68001F2F8
:1011980008DFF48029E493A3F85407240CC8C33368
:1011A800C4540F4420C8834004F456800146F6DF37
:1011B800E4800B0102040810204080901804E47EAB
:1011C800019360BCA3FF543F30E509541FFEE4932C
:1011D800A360010ECF54C025E060A840B8E493A3F3
:1011E800FAE493A3F8E493A3C8C582C8CAC583CA1E
:1011F800F0A3C8C582C8CAC583CADFE9DEE780BED6
:0118220000C5
:10077F00F8BB010DE58229F582E5833AF583E8F0B0
:10078F00225006E92582C8F622BBFE05E92582C85C
:02079F00F22244
:1007A100BC000BBE0029EF8DF084FFADF022E4CC3C
:1007B100F875F008EF2FFFEE33FEEC33FCEE9DEC05
:1007C100984005FCEE9DFE0FD5F0E9E4CEFD22ED4B
:1007D100F8F5F0EE8420D21CFEADF075F008EF2F95
:1007E100FFED33FD4007985006D5F0F222C398FD86
:0507F1000FD5F0EA2223
:0F189F00EFC394304007EF943A50028001C32208
:10188B00EFC394094005EF940E4004EFB42003D34B
:04189B008001C322E3
:00000001FF
